:100000000C9462000C948A000C948A000C948A0070
:100010000C948A000C948A000C948A000C948A0038
:100020000C948A000C948A000C948A000C94D804D6
:100030000C948A000C948A000C948A000C948A0018
:100040000C948E040C948A000C945C040C9436047A
:100050000C948A000C948A000C948A000C948A00F8
:100060000C948A000C948A000000000024002700F1
:100070002A0000000000250028002B0000000008D6
:10008000000201000003040700000000000000005F
:1000900000000000230026002900040404040404D6
:1000A0000404020202020202030303030303010227
:1000B00004081020408001020408102001020408F6
:1000C0001020D90511241FBECFEFD8E0DEBFCDBF71
:1000D00011E0A0E0B1E0E4ECF1E102C005900D9286
:1000E000A238B107D9F722E0A2E8B1E001C01D9221
:1000F000A735B207E1F710E0C2E6D0E004C02197CF
:10010000FE010E94DA08C136D107C9F70E943606FF
:100110000C94E0080C9400008F929F92AF92BF92D3
:10012000FF920F931F93CF93DF93F09054022BE035
:100130002F1508F44CC02091560208E512E0021B6E
:10014000110927FD1395000F111F000F111F20919A
:100150005502C8E8D0E0C21BD10927FDD395CC0FCA
:10016000DD1FCC0FDD1F4E010D2E000CAA08BB08B1
:100170009801012E000C440B550B281939094A0926
:100180005B09DC010E94950824EB30E040E050E080
:100190000E946B08820E931EA41EB51E8C169D062F
:1001A0002CF0E801801691060CF4E4012297CC0FA4
:1001B000DD1F2FB7F8948F2D90E0FC01EE0FFF1F8D
:1001C000E80FF91FE15DFD4FD283C1832FBFDF919F
:1001D000CF911F910F91FF90BF90AF909F908F9004
:1001E0000895AF92BF92CF92DF92EF92FF920F935A
:1001F0001F93CF93DF936C017B018B01040F151FBD
:10020000EB015E01AE18BF08C017D10759F0699124
:10021000D601ED91FC910190F081E02DC601099588
:10022000892B79F7C501DF91CF911F910F91FF9035
:10023000EF90DF90CF90BF90AF900895FC01538D69
:10024000448D252F30E0842F90E0821B930B5417B0
:1002500010F0CF96089501970895FC01918D828D3D
:10026000981761F0A28DAE0FBF2FB11D5D968C91D6
:10027000928D9F5F9F73928F90E008958FEF9FEF15
:100280000895FC01918D828D981731F0828DE80FD1
:10029000F11D858D90E008958FEF9FEF0895FC018B
:1002A000918D228D892F90E0805C9F4F821B910958
:1002B0008F739927089582E991E00E944F0121E010
:1002C000892B09F420E0822F089580E090E0892BAB
:1002D00029F00E945B0181110C9400000895FC013B
:1002E000A48DA80FB92FB11DA35ABF4F2C91848D97
:1002F00090E001968F739927848FA689B7892C93F4
:10030000A089B1898C91837080648C93938D848D46
:10031000981306C00288F389E02D80818F7D808349
:100320000895EF92FF920F931F93CF93DF93EC0109
:1003300081E0888F9B8D8C8D98131AC0E889F9898C
:10034000808185FF15C09FB7F894EE89FF8960838F
:10035000E889F98980818370806480839FBF81E010
:1003600090E0DF91CF911F910F91FF90EF90089552
:10037000F62E0B8D10E00F5F1F4F0F731127E02E2D
:100380008C8D8E110CC00FB607FCFACFE889F98965
:10039000808185FFF5CFCE010E946F01F1CFEB8DFB
:1003A000EC0FFD2FF11DE35AFF4FF0829FB7F89439
:1003B0000B8FEA89FB8980818062CFCFCF93DF9357
:1003C000EC01888D8823B9F0AA89BB89E889F9896D
:1003D0008C9185FD03C0808186FD0DC00FB607FCA2
:1003E000F7CF8C9185FFF2CF808185FFEDCFCE01D5
:1003F0000E946F01E9CFDF91CF910895833081F0A2
:1004000028F4813099F08230A9F008958730A9F05E
:100410008830C9F08430B1F4809180008F7D03C0B2
:10042000809180008F7780938000089584B58F77C6
:1004300084BD089584B58F7DFBCF8091B0008F7708
:100440008093B00008958091B0008F7DF9CFCF9355
:10045000DF93E9E8F0E08491EBEBF0E0D491E7EA98
:10046000F0E0C491CC23A1F081110E94FE01EC2F99
:10047000F0E0EE0FFF1FE057FF4FA591B491EC9114
:10048000ED2381E090E009F480E0DF91CF910895C1
:1004900080E090E0FACF1F93CF93DF93282F30E0D6
:1004A000F901E458FF4F8491F901E255FF4FD491CF
:1004B000F901E656FF4FC491CC23A9F0162F811104
:1004C0000E94FE01EC2FF0E0EE0FFF1FEE58FF4FF1
:1004D000A591B4918FB7F894EC91111108C0D09503
:1004E000DE23DC938FBFDF91CF911F910895DE2B28
:1004F000F8CFCF93DF9390E0FC01E255FF4F2491BA
:1005000086569F4FFC0184918823D1F090E0880F9C
:10051000991FFC01E859FF4FA591B491FC01EE58D9
:10052000FF4FC591D49161110EC09FB7F8948C9183
:10053000E22FE0958E238C932881E223E8839FBFEE
:10054000DF91CF9108958FB7F894EC91E22BEC9363
:100550008FBFF6CF1F93CF93DF93182FEB0161E08E
:100560000E947902209739F460E0812FDF91CF91CA
:100570001F910C944B02CF3FD10511F461E0F5CFF0
:10058000E12FF0E0E458FF4FE491E33031F140F423
:10059000E130B1F0E230E1F0C038D1057CF7E4CFD2
:1005A000E73029F1E83059F1E430B1F7809180006B
:1005B000806280938000D0938B00C0938A0004C037
:1005C00084B5806884BDC7BDDF91CF911F91089528
:1005D00084B5806284BDC8BDF7CF809180008068FB
:1005E00080938000D0938900C0938800EDCF8091E4
:1005F000B00080688093B000C093B300E5CF8091D5
:10060000B00080628093B000C093B400DDCF3FB7EC
:10061000F8948091880190918901A0918A01B0910C
:100620008B0126B5A89B05C02F3F19F00196A11D8F
:10063000B11D3FBFBA2FA92F982F8827BC01CD012C
:10064000620F711D811D911D42E0660F771F881F8B
:10065000991F4A95D1F708958F929F92AF92BF92BA
:10066000CF92DF92EF92FF926B017C010E94070311
:100670004B015C01C114D104E104F104B9F00E9402
:100680000703681979098A099B09683E7340810547
:10069000910580F321E0C21AD108E108F10888EE43
:1006A000880E83E0981EA11CB11CE4CFFF90EF9050
:1006B000DF90CF90BF90AF909F908F90089561E0B2
:1006C00087E00E944B0260E088E00E944B0260E0FD
:1006D00089E00E944B0261E08BE00E944B0262E3E2
:1006E00070E086E00E94AA0262E370E085E00C946C
:1006F000AA020F931F93482FEBEBF0E06491E7EA17
:10070000F0E0E4918111462FF0E0EE0FFF1FE0577B
:10071000FF4F8591949100E412E42FE030E00E94B5
:100720009405611571058105910529F06F5F7F4F73
:100730008F4F9F4F9F701F910F910895FC01019063
:100740000020E9F73197AF01481B590BBC0182E942
:1007500091E00C94F100CF93DF930E949E03EC0193
:1007600082E191E00E949E038C0F9D1FDF91CF914B
:1007700008958F929F92AF92BF92CF92DF92EF92A5
:10078000FF920F931F93CF93DF93CDB7DEB7A1975F
:100790000FB6F894DEBF0FBECDBF6C01990FEE0807
:1007A000FF08F7FE41C06DE282E991E00E949101ED
:1007B0008C0122273327A9012C193D094E095F0915
:1007C00019A2CE0181967C019AE0892E912CA12C50
:1007D000B12CCA01B901A50194010E949D08605D78
:1007E000F70162937F01211531054105510589F714
:1007F00090E080E0309719F0CF010E949E03800FB7
:10080000911FA1960FB6F894DEBF0FBECDBFDF914A
:10081000CF911F910F91FF90EF90DF90CF90BF90FD
:10082000AF909F908F900895A701960119A28E0115
:100830000F5D1F4F8AE0C82ED12CE12CF12CCA018C
:10084000B901A70196010E949D08605DF8016293BD
:100850008F01211531054105510589F790E080E0B0
:10086000309779F2CF010E949E03CBCF1F920F9257
:100870000FB60F9211242F933F934F935F936F9373
:100880007F938F939F93AF93BF93EF93FF9382E9EF
:1008900091E00E946F01FF91EF91BF91AF919F9105
:1008A0008F917F916F915F914F913F912F910F9019
:1008B0000FBE0F901F9018951F920F920FB60F92B8
:1008C00011242F938F939F93EF93FF93E091A201B5
:1008D000F091A3018081E091A801F091A90182FD2E
:1008E0001BC090818091AB018F5F8F732091AC0111
:1008F000821741F0E091AB01F0E0EE56FE4F958F8C
:100900008093AB01FF91EF919F918F912F910F9069
:100910000FBE0F901F9018958081F4CF1F920F92F9
:100920000FB60F9211242F933F938F939F93AF9302
:10093000BF938091840190918501A0918601B0912F
:1009400087013091830123E0230F2D3758F501965D
:10095000A11DB11D20938301809384019093850193
:10096000A0938601B09387018091880190918901BD
:10097000A0918A01B0918B010196A11DB11D8093B8
:10098000880190938901A0938A01B0938B01BF9154
:10099000AF919F918F913F912F910F900FBE0F902C
:1009A0001F90189526E8230F0296A11DB11DD2CFE6
:1009B0001F920F920FB60F9211242F933F934F93D4
:1009C0005F936F937F938F939F93AF93BF93CF93D7
:1009D000DF93EF93FF9380918201C0915302D0E0A7
:1009E00087FF24C0109285001092840080918201BC
:1009F0008F5F8093820180918201082E000C990BF9
:100A00008C179D0724F4809182018C30C4F1809171
:100A1000840090918500049680349C4908F47AC043
:100A20008091840090918500049676C08091820127
:100A3000082E000C990B8C179D07C4F6E0918201DB
:100A40008E2FEE0F990BFC01EE0FFF1FE80FF91F21
:100A5000E15DFD4F808186FFC9CFE09182018E2F3D
:100A6000EE0F990BFC01EE0FFF1FE80FF91FE15D80
:100A7000FD4F808160E08F730E944B02B7CF2091C1
:100A8000840030918500E09182018E2FEE0F990B4A
:100A9000FC01EE0FFF1FE80FF91FE15DFD4F8181A3
:100AA0009281820F931F9093890080938800E09138
:100AB00082018E2FEE0F990BFC01EE0FFF1FE80F46
:100AC000F91FE15DFD4F808186FF11C0E091820139
:100AD0008E2FEE0F990BFC01EE0FFF1FE80FF91F91
:100AE000E15DFD4F808161E08F730E944B02FF91B9
:100AF000EF91DF91CF91BF91AF919F918F917F91B6
:100B00006F915F914F913F912F910F900FBE0F907A
:100B10001F90189580E49CE9909389008093880049
:100B20008FEF80938201E3CFCF92DF92EF92FF921B
:100B30000F931F93E82FF92F05C0015011092109C8
:100B4000310961F1908196239417B9F305C00150E2
:100B500011092109310911F1908196239413F7CFDE
:100B6000C12CD12CE12CF12C0AC08FEFC81AD80A65
:100B7000E80AF80A0C151D052E053F0579F080815D
:100B80008623841791F36C2D7D2D8E2D9F2D1F9123
:100B90000F91FF90EF90DF90CF90089560E070E0AC
:100BA00080E090E01F910F91FF90EF90DF90CF9049
:100BB0000895109295011092940188EE93E0A0E0C0
:100BC000B0E08093960190939701A0939801B09321
:100BD000990184E091E0909393018093920185ECD8
:100BE00090E090939F0180939E0184EC90E090931D
:100BF000A1018093A00180EC90E09093A3018093E9
:100C0000A20181EC90E09093A5018093A40182EC75
:100C100090E09093A7018093A60186EC90E09093DA
:100C2000A9018093A8011092AB011092AC0110921F
:100C3000AD011092AE01809153028C3098F491E096
:100C4000980F909353028093540290E0FC01EE0FB2
:100C5000FF1FE80FF91FE15DFD4F88EB9BE09283DA
:100C6000818308958FEF809354020895789484B51A
:100C7000826084BD84B5816084BD85B5826085BD98
:100C800085B5816085BD80916E00816080936E0026
:100C90001092810080918100826080938100809118
:100CA00081008160809381008091800081608093C9
:100CB00080008091B10084608093B1008091B00089
:100CC00081608093B00080917A00846080937A0084
:100CD00080917A00826080937A0080917A008160AE
:100CE00080937A0080917A00806880937A001092D5
:100CF000C100809154028C3008F051C061E083E063
:100D00000E94790280915402282F30E0F901EE0F01
:100D1000FF1FE20FF31FE15DFD4F9081907C936018
:100D2000908310925502109256022CE0622F0E947E
:100D3000CE08829FB001112430E020E0AB01420FC9
:100D4000531FFA01EE0FFF1FE40FF51FE15DFD4F8A
:100D5000908196FD16C02F5F3F4F2C30310571F703
:100D600081110FC01092800082E080938100109268
:100D7000850010928400B19A80916F008260809308
:100D80006F00E09154028E2F90E0FC01EE0FFF1FE8
:100D9000E80FF91FE15DFD4F80818064808390E062
:100DA00080E00E948C0060ED77E080E090E00E949F
:100DB0002C03E091A201F091A30182E08083E091F5
:100DC0009E01F0919F011082E091A001F091A1019C
:100DD0008FEC80831092AA01E091A601F091A70107
:100DE00086E08083E091A401F091A501808180617B
:100DF0008083E091A401F091A501808188608083C7
:100E0000E091A401F091A501808180688083E09148
:100E1000A401F091A50180818F7D808361E08EE047
:100E20000E94790261E08FE00E94790261E080E136
:100E30000E94790261E081E10E94790260E08DE028
:100E40000E94790261E082E00E94790261E08AE01A
:100E50000E94790261E084E00E94790261E08EE004
:100E60000E944B0261E08FE00E944B0261E087E04C
:100E70000E94790261E088E00E94790261E089E0E5
:100E80000E94790261E08BE00E94790261E085E0D6
:100E90000E94790261E086E00E94790261E085E0CB
:100EA0000E944B02C0E0D0E060E080E10E944B0273
:100EB00060E081E10E944B020E94270221E001973D
:100EC00009F420E0822F0E947903709391016093CE
:100ED000900161E081E10E944B020E94270221E023
:100EE000019709F420E0822F0E94790370938D010D
:100EF00060938C0161E080E10E944B020E94270216
:100F000021E0019709F420E0822F0E947903709379
:100F10008F0160938E0185E191E00E949E03809194
:100F20009001909191010E94B90382E291E00E94A8
:100F30009E0380918E0190918F010E94B90381E3FD
:100F400091E00E949E0380918C0190918D010E94FE
:100F5000B903809190019091910120918C01309181
:100F60008D0140918E0150918F01821793070CF0F3
:100F700043C0841795070CF07CC0843191050CF0B8
:100F800078C080EA90E00E948C0060E570E080E02C
:100F900090E00E942C0381E491E00E94AB0361E0A9
:100FA00082E00E944B0260E08AE00E944B0260E017
:100FB00084E00E944B0260E087E00E944B0260E008
:100FC00088E00E944B0260E089E00E944B0260E0F2
:100FD0008BE00E944B0260E086E00E944B0260E0E2
:100FE00085E00E944B0260ED77E080E090E00E9497
:100FF0002C030E945F031AC028173907D4F5241761
:101000003507BCF590E080E00E948C0080E591E01F
:101010000E94AB0360E082E00E944B0260E08AE045
:101020000E944B0261E084E00E944B0264E170E0A8
:1010300080E090E00E942C036CE271E080E090E0A0
:101040000E942C0360E082E00E944B0260E08AE094
:101050000E944B0260E084E00E944B02209709F45A
:1010600023CF0E945B01882309F41ECF0E94000059
:101070001BCF481759078CF480E691E00E94AB0320
:1010800060E082E00E944B0261E08AE00E944B0235
:1010900060E084E00E944B02ACCF8997BCF04633FD
:1010A0005105A4F02F3131058CF081E791E00E94C9
:1010B000AB0360E082E00E944B0260E08AE00E94A5
:1010C0004B0260E084E00E944B02B6CF82E191E0E7
:1010D0000E949E03B1CF052E97FB1EF400940E9440
:1010E000820857FD07D00E949D0807FC03D04EF4EC
:1010F0000C94820850954095309521953F4F4F4F65
:101100005F4F089590958095709561957F4F8F4FB3
:101110009F4F08950E94BF08A59F900DB49F900D0A
:10112000A49F800D911D11240895B7FF0C948A0887
:101130000E948A08821B930B0895A1E21A2EAA1B13
:10114000BB1BFD010DC0AA1FBB1FEE1FFF1FA21777
:10115000B307E407F50720F0A21BB30BE40BF50B74
:10116000661F771F881F991F1A9469F760957095FD
:10117000809590959B01AC01BD01CF010895A29F80
:10118000B001B39FC001A39F700D811D1124911D5B
:10119000B29F700D811D1124911D0895991B79E056
:1011A00004C0991F961708F0961B881F7A95C9F7F7
:1011B00080950895EE0FFF1F0590F491E02D09949E
:0411C000F894FFCFD1
:1011C400000000009101F1001E01DE014F012D011C
:1011D40041010D0A005220496E74656E7369747979
:1011E4003A00204720496E74656E736974793A2019
:1011F40000204220496E74656E73697479203A2028
:1012040000202D202852656420436F6C6F722900E2
:10121400202D2028426C756520436F6C6F72290065
:10122400202D2028477265656E20436F6C6F7229EC
:1012340000202D2028426C61636B20436F6C6F7219
:0212440029007F
:00000001FF
