:100000000C9462000C948A000C948A000C948A0070
:100010000C948A000C948A000C948A000C948A0038
:100020000C948A000C948A000C948A000C9450055D
:100030000C948A000C948A000C948A000C948A0018
:100040000C9406050C948A000C94D4040C94AE0411
:100050000C948A000C948A000C948A000C948A00F8
:100060000C948A000C948A000000000024002700F1
:100070002A0000000000250028002B0000000008D6
:10008000000201000003040700000000000000005F
:1000900000000000230026002900040404040404D6
:1000A0000404020202020202030303030303010227
:1000B00004081020408001020408102001020408F6
:1000C0001020510611241FBECFEFD8E0DEBFCDBFF8
:1000D00011E0A0E0B1E0EAE9F2E102C005900D9282
:1000E000A238B107D9F722E0A2E8B1E001C01D9221
:1000F000AA35B207E1F710E0C2E6D0E004C02197CC
:10010000FE010E944509C136D107C9F70E94C80601
:100110000C944B090C940000AF92BF92CF92DF92E7
:10012000EF92FF920F931F93CF93DF936C017B01AC
:100130008B01040F151FEB015E01AE18BF08C0173D
:10014000D10759F06991D601ED91FC910190F081B0
:10015000E02DC6010995892B79F7C501DF91CF9173
:100160001F910F91FF90EF90DF90CF90BF90AF90D5
:100170000895FC01538D448D252F30E0842F90E0AD
:10018000821B930B541710F0CF9608950197089592
:10019000FC01918D828D981761F0A28DAE0FBF2F5B
:1001A000B11D5D968C91928D9F5F9F73928F90E0B1
:1001B00008958FEF9FEF0895FC01918D828D981720
:1001C00031F0828DE80FF11D858D90E008958FEF5D
:1001D0009FEF0895FC01918D228D892F90E0805C26
:1001E0009F4F821B91098F739927089582E991E0AF
:1001F0000E94EA0021E0892B09F420E0822F089573
:1002000080E090E0892B29F00E94F60081110C9487
:1002100000000895FC01A48DA80FB92FB11DA35AA9
:10022000BF4F2C91848D90E001968F739927848F16
:10023000A689B7892C93A089B1898C918370806439
:100240008C93938D848D981306C00288F389E02DDA
:1002500080818F7D80830895EF92FF920F931F938B
:10026000CF93DF93EC0181E0888F9B8D8C8D981369
:100270001AC0E889F989808185FF15C09FB7F89475
:10028000EE89FF896083E889F989808183708064C1
:1002900080839FBF81E090E0DF91CF911F910F910C
:1002A000FF90EF900895F62E0B8D10E00F5F1F4F1B
:1002B0000F731127E02E8C8D8E110CC00FB607FC2A
:1002C000FACFE889F989808185FFF5CFCE010E94B8
:1002D0000A01F1CFEB8DEC0FFD2FF11DE35AFF4F1B
:1002E000F0829FB7F8940B8FEA89FB898081806246
:1002F000CFCFCF93DF93EC01888D8823B9F0AA8903
:10030000BB89E889F9898C9185FD03C0808186FDD0
:100310000DC00FB607FCF7CF8C9185FFF2CF80811F
:1003200085FFEDCFCE010E940A01E9CFDF91CF9189
:100330000895833081F028F4813099F08230A9F05B
:1003400008958730A9F08830C9F08430B1F48091E5
:1003500080008F7D03C0809180008F778093800024
:10036000089584B58F7784BD089584B58F7DFBCFC4
:100370008091B0008F778093B00008958091B00095
:100380008F7DF9CFCF93DF93E9E8F0E08491EBEB39
:10039000F0E0D491E7EAF0E0C491CC23A1F0811120
:1003A0000E949901EC2FF0E0EE0FFF1FE057FF4F86
:1003B000A591B491EC91ED2381E090E009F480E007
:1003C000DF91CF91089580E090E0FACF1F93CF9313
:1003D000DF93282F30E0F901E458FF4F8491F901B1
:1003E000E255FF4FD491F901E656FF4FC491CC235B
:1003F000A9F0162F81110E949901EC2FF0E0EE0F69
:10040000FF1FEE58FF4FA591B4918FB7F894EC9170
:10041000111108C0D095DE23DC938FBFDF91CF91FF
:100420001F910895DE2BF8CFCF93DF9390E0FC016E
:10043000E255FF4F249186569F4FFC0184918823FB
:10044000D1F090E0880F991FFC01E859FF4FA5916A
:10045000B491FC01EE58FF4FC591D49161110EC0CB
:100460009FB7F8948C91E22FE0958E238C9328818E
:10047000E223E8839FBFDF91CF9108958FB7F8946F
:10048000EC91E22BEC938FBFF6CF1F93CF93DF93CA
:10049000182FEB0161E00E941402209739F460E00C
:1004A000812FDF91CF911F910C94E601CF3FD105B1
:1004B00011F461E0F5CFE12FF0E0E458FF4FE49153
:1004C000E33031F140F4E130B1F0E230E1F0C03836
:1004D000D1057CF7E4CFE73029F1E83059F1E43079
:1004E000B1F780918000806280938000D0938B0070
:1004F000C0938A0004C084B5806884BDC7BDDF9105
:10050000CF911F91089584B5806284BDC8BDF7CF97
:1005100080918000806880938000D0938900C09390
:100520008800EDCF8091B00080688093B000C093C8
:10053000B300E5CF8091B00080628093B000C0939B
:10054000B400DDCF3FB7F894809188019091890184
:10055000A0918A01B0918B0126B5A89B05C02F3FC1
:1005600019F00196A11DB11D3FBFBA2FA92F982FD9
:100570008827BC01CD01620F711D811D911D42E0D4
:10058000660F771F881F991F4A95D1F708958F929C
:100590009F92AF92BF92CF92DF92EF92FF926B0148
:1005A0007C010E94A2024B015C01C114D104E10450
:1005B000F104B9F00E94A202681979098A099B091D
:1005C000683E73408105910580F321E0C21AD1088D
:1005D000E108F10888EE880E83E0981EA11CB11C8A
:1005E000E4CFFF90EF90DF90CF90BF90AF909F90BF
:1005F0008F9008958F929F92AF92BF92FF920F9328
:100600001F93CF93DF93FC01F0808BE08F1508F4EC
:100610004AC0828108E512E0081B110987FD139585
:10062000000F111F000F111F8181C8E8D0E0C81B07
:10063000D10987FDD395CC0FDD1FCC0FDD1F4E01F7
:100640000D2E000CAA08BB089801012E000C440BCB
:10065000550B281939094A095B09DB010E94000979
:1006600024EB30E040E050E00E94D608820E931E5A
:10067000A41EB51E8C169D062CF0E801801691066E
:100680000CF4E4012297CC0FDD1F2FB7F8948F2DC7
:1006900090E0FC01EE0FFF1FE80FF91FE15DFD4F39
:1006A000D283C1832FBFDF91CF911F910F91FF9014
:1006B000BF90AF909F908F9008951F93CF93DF933B
:1006C000EC01162F88818C3008F04EC061E0812F3C
:1006D0000E9414028881282F30E0F901EE0FFF1FDD
:1006E000E20FF31FE15DFD4F1F736081607C612BA2
:1006F000608319821A822CE0622F0E943909829F3E
:10070000B001112430E020E0AB01420F531FFA0189
:10071000EE0FFF1FE40FF51FE15DFD4F908196FD89
:1007200016C02F5F3F4F2C30310571F781110FC07C
:100730001092800082E080938100109285001092D8
:100740008400B19A80916F00826080936F00E8818D
:100750008E2F90E0FC01EE0FFF1FE80FF91FE15D07
:10076000FD4F8081806480838881DF91CF911F91CC
:1007700008950F931F93482FEBEBF0E06491E7EAA5
:10078000F0E0E4918111462FF0E0EE0FFF1FE057FB
:10079000FF4F8591949100E412E42FE030E00E9435
:1007A0000C06611571058105910529F06F5F7F4F7A
:1007B0008F4F9F4F9F701F910F91089560E080E1D0
:1007C0000E94E60160E081E10E94E6010E94C20110
:1007D00021E0019709F420E0822F0E94B903709371
:1007E00091016093900161E081E10E94E6010E9425
:1007F000C20121E0019709F420E0822F0E94B90391
:1008000070938D0160938C0161E080E10E94E601AC
:100810000E94C20121E0019709F420E0822F0E948A
:10082000B90370938F0160938E010895FC010190CC
:100830000020E9F73197AF01481B590BBC0182E951
:1008400091E00C948C00CF93DF930E941604EC018E
:1008500082E191E00E9416048C0F9D1FDF91CF91E1
:1008600008958F929F92AF92BF92CF92DF92EF92B4
:10087000FF920F931F93CF93DF93CDB7DEB7A1976E
:100880000FB6F894DEBF0FBECDBF6C01990FEE0816
:10089000FF08F7FE41C06DE282E991E00E942C0161
:1008A0008C0122273327A9012C193D094E095F0924
:1008B00019A2CE0181967C019AE0892E912CA12C5F
:1008C000B12CCA01B901A50194010E940809605D1B
:1008D000F70162937F01211531054105510589F723
:1008E00090E080E0309719F0CF010E941604800F4D
:1008F000911FA1960FB6F894DEBF0FBECDBFDF915A
:10090000CF911F910F91FF90EF90DF90CF90BF900C
:10091000AF909F908F900895A701960119A28E0124
:100920000F5D1F4F8AE0C82ED12CE12CF12CCA019B
:10093000B901A70196010E940809605DF801629360
:100940008F01211531054105510589F790E080E0BF
:10095000309779F2CF010E941604CBCF1F920F92ED
:100960000FB60F9211242F933F934F935F936F9382
:100970007F938F939F93AF93BF93EF93FF9382E9FE
:1009800091E00E940A01FF91EF91BF91AF919F9179
:100990008F917F916F915F914F913F912F910F9028
:1009A0000FBE0F901F9018951F920F920FB60F92C7
:1009B00011242F938F939F93EF93FF93E091A201C4
:1009C000F091A3018081E091A801F091A90182FD3D
:1009D0001BC090818091AB018F5F8F732091AC0120
:1009E000821741F0E091AB01F0E0EE56FE4F958F9B
:1009F0008093AB01FF91EF919F918F912F910F9079
:100A00000FBE0F901F9018958081F4CF1F920F9208
:100A10000FB60F9211242F933F938F939F93AF9311
:100A2000BF938091840190918501A0918601B0913E
:100A300087013091830123E0230F2D3758F501966C
:100A4000A11DB11D209383018093840190938501A2
:100A5000A0938601B09387018091880190918901CC
:100A6000A0918A01B0918B010196A11DB11D8093C7
:100A7000880190938901A0938A01B0938B01BF9163
:100A8000AF919F918F913F912F910F900FBE0F903B
:100A90001F90189526E8230F0296A11DB11DD2CFF5
:100AA0001F920F920FB60F9211242F933F934F93E3
:100AB0005F936F937F938F939F93AF93BF93CF93E6
:100AC000DF93EF93FF9380918201C0915302D0E0B6
:100AD00087FF24C0109285001092840080918201CB
:100AE0008F5F8093820180918201082E000C990B08
:100AF0008C179D0724F4809182018C30C4F1809181
:100B0000840090918500049680349C4908F47AC052
:100B10008091840090918500049676C08091820136
:100B2000082E000C990B8C179D07C4F6E0918201EA
:100B30008E2FEE0F990BFC01EE0FFF1FE80FF91F30
:100B4000E15DFD4F808186FFC9CFE09182018E2F4C
:100B5000EE0F990BFC01EE0FFF1FE80FF91FE15D8F
:100B6000FD4F808160E08F730E94E601B7CF209136
:100B7000840030918500E09182018E2FEE0F990B59
:100B8000FC01EE0FFF1FE80FF91FE15DFD4F8181B2
:100B90009281820F931F9093890080938800E09147
:100BA00082018E2FEE0F990BFC01EE0FFF1FE80F55
:100BB000F91FE15DFD4F808186FF11C0E091820148
:100BC0008E2FEE0F990BFC01EE0FFF1FE80FF91FA0
:100BD000E15DFD4F808161E08F730E94E601FF912E
:100BE000EF91DF91CF91BF91AF919F918F917F91C5
:100BF0006F915F914F913F912F910F900FBE0F908A
:100C00001F90189580E49CE9909389008093880058
:100C10008FEF80938201E3CFCF92DF92EF92FF922A
:100C20000F931F93E82FF92F05C0015011092109D7
:100C3000310961F1908196239417B9F305C00150F1
:100C400011092109310911F1908196239413F7CFED
:100C5000C12CD12CE12CF12C0AC08FEFC81AD80A74
:100C6000E80AF80A0C151D052E053F0579F080816C
:100C70008623841791F36C2D7D2D8E2D9F2D1F9132
:100C80000F91FF90EF90DF90CF90089560E070E0BB
:100C900080E090E01F910F91FF90EF90DF90CF9058
:100CA0000895109295011092940188EE93E0A0E0CF
:100CB000B0E08093960190939701A0939801B09330
:100CC000990184E091E0909393018093920185ECE7
:100CD00090E090939F0180939E0184EC90E090932C
:100CE000A1018093A00180EC90E09093A3018093F8
:100CF000A20181EC90E09093A5018093A40182EC85
:100D000090E09093A7018093A60186EC90E09093E9
:100D1000A9018093A8011092AB011092AC0110922E
:100D2000AD011092AE01809153028C3048F591E0F4
:100D3000980F909353028093570290E0FC01EE0FBE
:100D4000FF1FE80FF91FE15DFD4F88EB9BE09283E9
:100D50008183809153028C30B8F491E0980F909386
:100D600053028093540290E0FC01EE0FFF1FE80F46
:100D7000F91FE15DFD4F88EB9BE09283818308952D
:100D80008FEF80935702E5CF8FEF80935402089541
:100D9000789484B5826084BD84B5816084BD85B556
:100DA000826085BD85B5816085BD80916E00816062
:100DB00080936E0010928100809181008260809308
:100DC000810080918100816080938100809180000A
:100DD0008160809380008091B10084608093B10035
:100DE0008091B00081608093B00080917A0084602F
:100DF00080937A0080917A00826080937A0080915B
:100E00007A00816080937A0080917A008068809374
:100E10007A001092C10063E070E087E592E00E94E2
:100E20005D0364EB70E087E592E00E94FA0268EEF1
:100E300073E080E090E00E94C70270E060E087E528
:100E400092E00E94FA0268EE73E080E090E00E9477
:100E5000C7026AE570E087E592E00E94FA0268EE58
:100E600073E080E090E00E94C7026AE070E084E5F1
:100E700092E00E945D0368EE73E080E090E00E94E3
:100E8000C702E091A201F091A30182E08083E0918A
:100E90009E01F0919F011082E091A001F091A101CB
:100EA0008FEC80831092AA01E091A601F091A70136
:100EB00086E08083E091A401F091A50180818061AA
:100EC0008083E091A401F091A501808188608083F6
:100ED000E091A401F091A501808180688083E09178
:100EE000A401F091A50180818F7D808361E08EE077
:100EF0000E94140261E08FE00E94140261E080E130
:100F00000E94140261E081E10E94140260E08DE021
:100F10000E94140261E082E00E94140261E084E019
:100F20000E94140261E08EE00E94E60161E08FE021
:100F30000E94E60161E087E00E94140261E088E01F
:100F40000E94140261E089E00E94140261E08BE0DB
:100F50000E94140261E085E00E94140261E086E0D4
:100F60000E94140261E085E00E94E601C0E0D0E04A
:100F70000E94DE0385E191E00E94160480919001B9
:100F8000909191010E94310482E291E00E94160446
:100F900080918E0190918F010E94310481E391E054
:100FA0000E94160480918C0190918D010E94310461
:100FB000809190019091910120918C0130918D014F
:100FC00040918E0150918F01821793070CF057C00A
:100FD000841795070CF0C4C0843191050CF0C0C093
:100FE00060EA70E084E592E00E94FA0260E570E059
:100FF00080E090E00E94C70281E491E00E94230417
:1010000061E082E00E94E60160E08AE00E94E60181
:1010100060E084E00E94E60160E087E00E94E60173
:1010200060E088E00E94E60160E089E00E94E6015D
:1010300060E08BE00E94E60160E086E00E94E6014D
:1010400060E085E00E94E60160ED77E080E090E0FE
:101050000E94C7026AE070E084E592E00E94FA0212
:1010600068EE73E080E090E00E94C70260ED77E0F8
:1010700080E090E00E94C7020E94DE0352C0281761
:1010800039070CF06DC0241735070CF069C070E00B
:1010900060E084E592E00E94FA0280E591E00E941F
:1010A000230460E082E00E94E60160E08AE00E94A2
:1010B000E60161E084E00E94E60166E970E084E513
:1010C00092E00E94FA0268EE73E080E090E00E94F5
:1010D000C70268EE73E080E090E00E94C70261E022
:1010E00087E00E94E60160E088E00E94E60160E09F
:1010F00089E00E94E60161E08BE00E94E60164E67F
:1011000070E086E00E94450264E670E085E00E949F
:1011100045020E94DE0364E170E080E090E00E94FE
:10112000C7026CE271E080E090E00E94C70260E0DC
:1011300082E00E94E60160E08AE00E94E60160E051
:1011400084E00E94E6010E94DE03209709F410CF9C
:101150000E94F600882309F40BCF0E94000008CFFC
:10116000481759078CF480E691E00E94230460E060
:1011700082E00E94E60161E08AE00E94E60160E010
:1011800084E00E94E601C7CF89975CF046335105A1
:1011900044F02F3131052CF081E791E00E942304C7
:1011A0006BCF82E191E00E941604BBCF052E97FB26
:1011B0001EF400940E94ED0857FD07D00E94080914
:1011C00007FC03D04EF40C94ED08509540953095F3
:1011D00021953F4F4F4F5F4F0895909580957095A3
:1011E00061957F4F8F4F9F4F08950E942A09A59FB9
:1011F000900DB49F900DA49F800D911D1124089512
:10120000B7FF0C94F5080E94F508821B930B089514
:10121000A1E21A2EAA1BBB1BFD010DC0AA1FBB1FFA
:10122000EE1FFF1FA217B307E407F50720F0A21B6C
:10123000B30BE40BF50B661F771F881F991F1A94D9
:1012400069F760957095809590959B01AC01BD0103
:10125000CF010895A29FB001B39FC001A39F700D5D
:10126000811D1124911DB29F700D811D1124911DAE
:101270000895991B79E004C0991F961708F0961BF2
:10128000881F7A95C9F780950895EE0FFF1F059086
:0A129000F491E02D0994F894FFCFCB
:10129A00000000002C018C00B9007901EA00C800A6
:1012AA00DC000D0A005220496E74656E7369747908
:1012BA003A00204720496E74656E736974793A2042
:1012CA0000204220496E74656E73697479203A2051
:1012DA0000202D202852656420436F6C6F7229000C
:1012EA00202D2028426C756520436F6C6F7229008F
:1012FA00202D2028477265656E20436F6C6F722916
:10130A0000202D2028426C61636B20436F6C6F7242
:02131A002900A8
:00000001FF
