:100000000C9462000C948A000C948A000C948A0070
:100010000C948A000C948A000C948A000C948A0038
:100020000C948A000C948A000C948A000C94E104CD
:100030000C948A000C948A000C948A000C948A0018
:100040000C9497040C948A000C9465040C943F045F
:100050000C948A000C948A000C948A000C948A00F8
:100060000C948A000C948A000000000024002700F1
:100070002A0000000000250028002B0000000008D6
:10008000000201000003040700000000000000005F
:1000900000000000230026002900040404040404D6
:1000A0000404020202020202030303030303010227
:1000B00004081020408001020408102001020408F6
:1000C0001020E20511241FBECFEFD8E0DEBFCDBF68
:1000D00011E0A0E0B1E0EAEFF1E102C005900D927D
:1000E000AC37B107D9F722E0ACE7B1E001C01D920F
:1000F000A135B207E1F710E0C2E6D0E004C02197D5
:10010000FE010E94F508C136D107C9F70E943F06DB
:100110000C94FB080C9400008F929F92AF92BF92B8
:10012000FF920F931F93CF93DF93F0904E022BE03B
:100130002F1508F44CC02091500208E512E0021B74
:10014000110927FD1395000F111F000F111F20919A
:100150004F02C8E8D0E0C21BD10927FDD395CC0FD0
:10016000DD1FCC0FDD1F4E010D2E000CAA08BB08B1
:100170009801012E000C440B550B281939094A0926
:100180005B09DC010E94B00824EB30E040E050E065
:100190000E948608820E931EA41EB51E8C169D0614
:1001A0002CF0E801801691060CF4E4012297CC0FA4
:1001B000DD1F2FB7F8948F2D90E0FC01EE0FFF1F8D
:1001C000E80FF91FE75DFD4FD283C1832FBFDF9199
:1001D000CF911F910F91FF90BF90AF909F908F9004
:1001E0000895AF92BF92CF92DF92EF92FF920F935A
:1001F0001F93CF93DF936C017B018B01040F151FBD
:10020000EB015E01AE18BF08C017D10759F0699124
:10021000D601ED91FC910190F081E02DC601099588
:10022000892B79F7C501DF91CF911F910F91FF9035
:10023000EF90DF90CF90BF90AF900895FC01538D69
:10024000448D252F30E0842F90E0821B930B5417B0
:1002500010F0CF96089501970895FC01918D828D3D
:10026000981761F0A28DAE0FBF2FB11D5D968C91D6
:10027000928D9F5F9F73928F90E008958FEF9FEF15
:100280000895FC01918D828D981731F0828DE80FD1
:10029000F11D858D90E008958FEF9FEF0895FC018B
:1002A000918D228D892F90E0805C9F4F821B910958
:1002B0008F73992708958CE891E00E944F0121E007
:1002C000892B09F420E0822F089580E090E0892BAB
:1002D00029F00E945B0181110C9400000895FC013B
:1002E000A48DA80FB92FB11DA35ABF4F2C91848D97
:1002F00090E001968F739927848FA689B7892C93F4
:10030000A089B1898C91837080648C93938D848D46
:10031000981306C00288F389E02D80818F7D808349
:100320000895EF92FF920F931F93CF93DF93EC0109
:1003300081E0888F9B8D8C8D98131AC0E889F9898C
:10034000808185FF15C09FB7F894EE89FF8960838F
:10035000E889F98980818370806480839FBF81E010
:1003600090E0DF91CF911F910F91FF90EF90089552
:10037000F62E0B8D10E00F5F1F4F0F731127E02E2D
:100380008C8D8E110CC00FB607FCFACFE889F98965
:10039000808185FFF5CFCE010E946F01F1CFEB8DFB
:1003A000EC0FFD2FF11DE35AFF4FF0829FB7F89439
:1003B0000B8FEA89FB8980818062CFCFCF93DF9357
:1003C000EC01888D8823B9F0AA89BB89E889F9896D
:1003D0008C9185FD03C0808186FD0DC00FB607FCA2
:1003E000F7CF8C9185FFF2CF808185FFEDCFCE01D5
:1003F0000E946F01E9CFDF91CF910895833081F0A2
:1004000028F4813099F08230A9F008958730A9F05E
:100410008830C9F08430B1F4809180008F7D03C0B2
:10042000809180008F7780938000089584B58F77C6
:1004300084BD089584B58F7DFBCF8091B0008F7708
:100440008093B00008958091B0008F7DF9CFCF9355
:10045000DF93E9E8F0E08491EBEBF0E0D491E7EA98
:10046000F0E0C491CC23A1F081110E94FE01EC2F99
:10047000F0E0EE0FFF1FE057FF4FA591B491EC9114
:10048000ED2381E090E009F480E0DF91CF910895C1
:1004900080E090E0FACF1F93CF93DF93282F30E0D6
:1004A000F901E458FF4F8491F901E255FF4FD491CF
:1004B000F901E656FF4FC491CC23A9F0162F811104
:1004C0000E94FE01EC2FF0E0EE0FFF1FEE58FF4FF1
:1004D000A591B4918FB7F894EC91111108C0D09503
:1004E000DE23DC938FBFDF91CF911F910895DE2B28
:1004F000F8CFCF93DF9390E0FC01E255FF4F2491BA
:1005000086569F4FFC0184918823D1F090E0880F9C
:10051000991FFC01E859FF4FA591B491FC01EE58D9
:10052000FF4FC591D49161110EC09FB7F8948C9183
:10053000E22FE0958E238C932881E223E8839FBFEE
:10054000DF91CF9108958FB7F894EC91E22BEC9363
:100550008FBFF6CF3FB7F8948091820190918301CD
:10056000A0918401B091850126B5A89B05C02F3FBD
:1005700019F00196A11DB11D3FBFBA2FA92F982FC9
:100580008827BC01CD01620F711D811D911D42E0C4
:10059000660F771F881F991F4A95D1F708958F928C
:1005A0009F92AF92BF92CF92DF92EF92FF924B0158
:1005B0005C010E94AA026B017C010E94AA026C19D4
:1005C0007D098E099F09683E734081059105A8F356
:1005D00021E0821A9108A108B10888EEC80E83E0D4
:1005E000D81EE11CF11C81149104A104B10429F767
:1005F000FF90EF90DF90CF90BF90AF909F908F9043
:10060000089560E087E00E944B0260E088E00E946D
:100610004B0260E089E00E944B0260E08BE00E94A8
:100620004B0260E086E00E944B0260E085E00C94A3
:100630004B020F931F93482FEBEBF0E06491E7EA36
:10064000F0E0E4918111462FF0E0EE0FFF1FE0573C
:10065000FF4F8591949100E412E42FE030E00E9476
:100660009D05611571058105910529F06F5F7F4F2B
:100670008F4F9F4F9F701F910F910895E82FF0E0CB
:10068000E458FF4FE491E33031F138F4E130B9F050
:10069000E230D9F060E00C944B02E73041F1E830F1
:1006A00079F1E430B9F78091800080628093800016
:1006B00084E690E090938B0080938A00089584B53F
:1006C000806884BD84E687BD089584B5806284BD5A
:1006D00084E688BD089580918000806880938000C2
:1006E00084E690E09093890080938800089580913B
:1006F000B00080688093B00084E68093B3000895D2
:100700008091B00080628093B00084E68093B40052
:10071000089561E087E00E944B0260E088E00E945B
:100720004B0260E089E00E944B0261E08BE00E9496
:100730004B0261E086E00E94790286E00E943E035F
:1007400061E085E00E94790285E00C943E03FC01A3
:1007500001900020E9F73197AF01481B590BBC010C
:100760008CE891E00C94F100CF93DF930E94A703F3
:10077000EC0182E191E00E94A7038C0F9D1FDF91A5
:10078000CF9108958F929F92AF92BF92CF92DF92B6
:10079000EF92FF920F931F93CF93DF93CDB7DEB706
:1007A000A1970FB6F894DEBF0FBECDBF6C01990FB5
:1007B000EE08FF08F7FE41C06DE28CE891E00E9470
:1007C00091018C0122273327A9012C193D094E09DB
:1007D0005F0919A2CE0181967C019AE0892E912CA5
:1007E000A12CB12CCA01B901A50194010E94B8083D
:1007F000605DF70162937F012115310541055105C7
:1008000089F790E080E0309719F0CF010E94A703AC
:10081000800F911FA1960FB6F894DEBF0FBECDBF1B
:10082000DF91CF911F910F91FF90EF90DF90CF90CC
:10083000BF90AF909F908F900895A701960119A245
:100840008E010F5D1F4F8AE0C82ED12CE12CF12CB8
:10085000CA01B901A70196010E94B808605DF801BC
:1008600062938F01211531054105510589F790E00B
:1008700080E0309779F2CF010E94A703CBCF1F927F
:100880000F920FB60F9211242F933F934F935F93C4
:100890006F937F938F939F93AF93BF93EF93FF9348
:1008A0008CE891E00E946F01FF91EF91BF91AF91B1
:1008B0009F918F917F916F915F914F913F912F9178
:1008C0000F900FBE0F901F9018951F920F920FB6AA
:1008D0000F9211242F938F939F93EF93FF93E091A7
:1008E0009C01F0919D018081E091A201F091A30112
:1008F00082FD1BC090818091A5018F5F8F73209135
:10090000A601821741F0E091A501F0E0E457FE4F07
:10091000958F8093A501FF91EF919F918F912F91DA
:100920000F900FBE0F901F9018958081F4CF1F92EB
:100930000F920FB60F9211242F933F938F939F9393
:10094000AF93BF9380917E0190917F01A091800130
:10095000B091810130917D0123E0230F2D3758F5AF
:100960000196A11DB11D20937D0180937E0190937E
:100970007F01A0938001B0938101809182019091C9
:100980008301A0918401B09185010196A11DB11D43
:100990008093820190938301A0938401B093850199
:1009A000BF91AF919F918F913F912F910F900FBE6B
:1009B0000F901F90189526E8230F0296A11DB11DD8
:1009C000D2CF1F920F920FB60F9211242F933F9305
:1009D0004F935F936F937F938F939F93AF93BF9347
:1009E000CF93DF93EF93FF9380917C01C0914D02F1
:1009F000D0E087FF24C0109285001092840080917F
:100A00007C018F5F80937C0180917C01082E000C1B
:100A1000990B8C179D0724F480917C018C30C4F1D4
:100A20008091840090918500049680349C4908F45C
:100A30007AC08091840090918500049676C0809160
:100A40007C01082E000C990B8C179D07C4F6E091D1
:100A50007C018E2FEE0F990BFC01EE0FFF1FE80FAC
:100A6000F91FE75DFD4F808186FFC9CFE0917C01D2
:100A70008E2FEE0F990BFC01EE0FFF1FE80FF91FF1
:100A8000E75DFD4F808160E08F730E944B02B7CF1E
:100A90002091840030918500E0917C018E2FEE0F33
:100AA000990BFC01EE0FFF1FE80FF91FE75DFD4FEB
:100AB00081819281820F931F909389008093880097
:100AC000E0917C018E2FEE0F990BFC01EE0FFF1FC2
:100AD000E80FF91FE75DFD4F808186FF11C0E091AF
:100AE0007C018E2FEE0F990BFC01EE0FFF1FE80F1C
:100AF000F91FE75DFD4F808161E08F730E944B021B
:100B0000FF91EF91DF91CF91BF91AF919F918F9125
:100B10007F916F915F914F913F912F910F900FBEF9
:100B20000F901F90189580E49CE990938900809322
:100B300088008FEF80937C01E3CFCF92DF92EF921A
:100B4000FF920F931F93E82FF92F05C00150110951
:100B50002109310961F1908196239417B9F305C0F9
:100B6000015011092109310911F190819623941343
:100B7000F7CFC12CD12CE12CF12C0AC08FEFC81A71
:100B8000D80AE80AF80A0C151D052E053F0579F06C
:100B900080818623841791F36C2D7D2D8E2D9F2DC2
:100BA0001F910F91FF90EF90DF90CF90089560E03C
:100BB00070E080E090E01F910F91FF90EF90DF9048
:100BC000CF90089510928F0110928E0188EE93E0DD
:100BD000A0E0B0E08093900190939101A0939201E6
:100BE000B093930184E091E090938D0180938C0108
:100BF00085EC90E0909399018093980184EC90E0CB
:100C000090939B0180939A0180EC90E090939D01DA
:100C100080939C0181EC90E090939F0180939E01D2
:100C200082EC90E09093A1018093A00186EC90E08B
:100C30009093A3018093A2011092A5011092A601A6
:100C40001092A7011092A80180914D028C3098F467
:100C500091E0980F90934D0280934E0290E0FC013A
:100C6000EE0FFF1FE80FF91FE75DFD4F88EB9BE0DC
:100C70009283818308958FEF80934E020895789434
:100C800084B5826084BD84B5816084BD85B5826091
:100C900085BD85B5816085BD80916E008160809342
:100CA0006E001092810080918100826080938100AB
:100CB00080918100816080938100809180008160BB
:100CC000809380008091B10084608093B100809116
:100CD000B00081608093B00080917A00846080933E
:100CE0007A0080917A00826080937A0080917A0005
:100CF000816080937A0080917A00806880937A0086
:100D00001092C10080914E028C3008F051C061E019
:100D100083E00E94790280914E02282F30E0F90191
:100D2000EE0FFF1FE20FF31FE75DFD4F9081907CF8
:100D30009360908310924F02109250022CE0622F29
:100D40000E94E908829FB001112430E020E0AB014D
:100D5000420F531FFA01EE0FFF1FE40FF51FE75D6F
:100D6000FD4F908196FD16C02F5F3F4F2C3031050F
:100D700071F781110FC01092800082E08093810092
:100D80001092850010928400B19A80916F00826069
:100D900080936F00E0914E028E2F90E0FC01EE0FE9
:100DA000FF1FE80FF91FE75DFD4F8081806480839E
:100DB00090E080E00E948C0060ED77E080E090E0C1
:100DC0000E94CF02E0919C01F0919D0182E080831E
:100DD000E0919801F09199011082E0919A01F091CF
:100DE0009B018FEC80831092A401E091A001F0910F
:100DF000A10186E08083E0919E01F0919F018081B6
:100E000080618083E0919E01F0919F0180818860E4
:100E10008083E0919E01F0919F01808180688083B2
:100E2000E0919E01F0919F0180818F7D808361E040
:100E30008EE00E94790261E08FE00E94790261E019
:100E400080E10E94790261E081E10E94790260E024
:100E50008DE00E94790261E082E00E94790261E007
:100E60008AE00E94790261E084E00E94790261E0F8
:100E70008EE00E944B0261E08FE00E944B0261E035
:100E800087E00E94790261E088E00E94790261E0D7
:100E900089E00E94790261E08BE00E94790261E0C2
:100EA00085E00E94790261E086E00E94790261E0BB
:100EB00085E00E944B02C0E0D0E060E080E10E944B
:100EC0004B0260E081E10E944B020E94270221E078
:100ED000019709F420E0822F0E94190370938B017F
:100EE00060938A0161E081E10E944B020E94270227
:100EF00021E0019709F420E0822F0E9419037093EA
:100F000087016093860161E080E10E944B020E94AC
:100F1000270221E0019709F420E0822F0E941903A3
:100F2000709389016093880185E191E00E94A70395
:100F300080918A0190918B010E94C20382E291E02C
:100F40000E94A70380918801909189010E94C203A9
:100F500081E391E00E94A70380918601909187012F
:100F60000E94C20380918A0190918B012091860199
:100F70003091870140918801509189018217930730
:100F80000CF049C0841795070CF068C084319105B6
:100F90000CF064C080EA90E00E948C0060E570E094
:100FA00080E090E00E94CF0281E491E00E94B403CF
:100FB00061E082E00E944B0260E08AE00E944B0206
:100FC00060E084E00E944B020E94010360ED77E044
:100FD00080E090E00E94CF020E9489036CE271E001
:100FE00080E090E00E94CF0260E082E00E944B022D
:100FF00060E08AE00E944B0260E084E00E944B02C5
:10100000209709F45ACF0E945B01882309F455CF39
:101010000E94000052CF2817390704F5241735071E
:10102000ECF490E080E00E948C0080E591E00E946A
:10103000B40360E082E00E944B0260E08AE00E941C
:101040004B0261E084E00E944B020E94890364E14C
:1010500070E080E090E00E94CF02C0CF48175907AF
:10106000CCF580E691E00E94B40360E082E00E944B
:101070004B0261E08AE00E944B0260E084E00E9443
:101080004B020E94010360E273E080E090E00E9466
:10109000CF0261E087E00E94790261E088E00E946F
:1010A000790261E085E00E94790261E085E00E94BA
:1010B0004B0261E087E00E944B0260E088E00E9402
:1010C0004B0260EB74E080E090E00E94CF020E944F
:1010D000010384CF8997ACF04633510594F02F314A
:1010E00031057CF08AE590E00E948C0060E570E0BC
:1010F00080E090E00E94CF0281E791E00E94B4037B
:101100006DCF82E191E00E94A70368CF052E97FB87
:101110001EF400940E949D0857FD07D00E94B80855
:1011200007FC03D04EF40C949D08509540953095E3
:1011300021953F4F4F4F5F4F089590958095709543
:1011400061957F4F8F4F9F4F08950E94DA08A59FAA
:10115000900DB49F900DA49F800D911D11240895B2
:10116000B7FF0C94A5080E94A508821B930B089555
:10117000A1E21A2EAA1BBB1BFD010DC0AA1FBB1F9B
:10118000EE1FFF1FA217B307E407F50720F0A21B0D
:10119000B30BE40BF50B661F771F881F991F1A947A
:1011A00069F760957095809590959B01AC01BD01A4
:1011B000CF010895A29FB001B39FC001A39F700DFE
:1011C000811D1124911DB29F700D811D1124911D4F
:1011D0000895991B79E004C0991F961708F0961B93
:1011E000881F7A95C9F780950895EE0FFF1F059027
:0A11F000F491E02D0994F894FFCF6C
:1011FA00000000009101F1001E01DE014F012D01E6
:10120A0041010D0A005220496E74656E7369747942
:10121A003A00204720496E74656E736974793A20E2
:10122A0000204220496E74656E73697479203A20F1
:10123A0000202D202852656420436F6C6F722900AC
:10124A00202D2028426C756520436F6C6F7229002F
:10125A00202D2028477265656E20436F6C6F7229B6
:0C126A0000202D2028626C61636B2900BD
:00000001FF
